:020000040800F2
:10000000D00400200501000813110008F10F0008BA
:10001000111100089D010008BD1300080000000038
:1000200000000000000000000000000017110008A0
:10003000F101000800000000151100084911000836
:100040001F0100081F0100081F0100081F01000810
:100050001F0100081F0100081F0100081F01000800
:100060001F0100081F0100081F0100081F010008F0
:100070001F0100081F0100081F0100081F010008E0
:100080001F0100081F0100081F0100081F010008D0
:100090001F0100081F0100081F010008F3010008EC
:1000A0001F0100081F0100081F0100081F010008B0
:1000B0001F0100081F0100081F0100081F010008A0
:1000C0001F0100081F0100081F0100081F01000890
:1000D0001F010008811300081F0100081F0100080C
:1000E0001F0100081F0100081F010008DFF810D0E1
:1000F00000F042F800480047BD1B0008AFF3008045
:10010000D00400200648804706480047FEE7FEE787
:10011000FEE7FEE7FEE7FEE7FEE7FEE7FEE7FEE7B7
:10012000AB110008ED000008D2B201E000F8012B8D
:10013000491EFBD270470022F6E710B513460A4667
:1001400004461946FFF7F0FF204610BD30B50B46B8
:10015000014600202022012409E021FA02F59D42F7
:1001600005D303FA02F5491B04FA02F52844151ECB
:10017000A2F10102F1DC30BD064C074D06E0E0685B
:1001800040F0010394E8070098471034AC42F6D3DE
:10019000FFF7B0FF402A0008602A0008FEE70000D1
:1001A000064A10B553680649064C0968B1FBF4F1DC
:1001B00041435068C01A8842FBD310BD001000E0D4
:1001C0004000002040420F0007480168C9010AD4DE
:1001D000016841F0807101600448002141600168BC
:1001E00041F0010101607047FCED00E0001000E00B
:1001F000704710B501F09AFBBDE810404FF4007055
:1002000000F080B808490A6942F002020A614861B8
:10021000086940F040000861C868C007FCD108695F
:1002200020F04200086170470020024010B50B46E4
:100230000446FFF7E7FF2046BDE81040194601F0ED
:10024000BFB8000010B590F821100024022903D097
:100250000421816301243DE001680A6822F00E0256
:100260000A6001680A6822F001020A601A4A0168FD
:10027000914201D1012121E0174A1432914201D16A
:1002800010211BE0144A2832914201D1891515E052
:10029000114A3C32914201D189140FE00E4A50328A
:1002A000914202D14FF4803108E00B4A643291420E
:1002B00002D14FF4801101E04FF08071064A083AF4
:1002C0005160012180F82110002180F82010416B3D
:1002D00001B18847204610BD0800024070B50446B1
:1002E00000F016F90546601C02D00448007804446A
:1002F00000F00EF9401BA042FAD370BD340000207C
:1003000070470000044910B50A68024202D0086034
:10031000FFF7F6FF10BD0000140401402DE9F84F6F
:10032000DFF8B891002409F1040A0AF1040B23460E
:100330000F270BF1040EC9E00125A5402A40AA426F
:100340007DD1674ED1F804C0ACEB0608B44532D07D
:1003500014DCBCF1030F3AD009DCBCF1000F2AD049
:10036000BCF1010F1CD0BCF1020F31D11DE0BCF17A
:10037000110F17D0BCF1120F2AD119E0B8F5881F60
:1003800019D006DCB8F5803F15D0B8F5801F1FD115
:1003900011E0B8F5001F0ED0B8F5041F18D10AE01F
:1003A000CB6815E0CB681B1D12E0CB6808330FE06B
:1003B000CB680C330CE08B682BB1012B4FF008039A
:1003C00003D0456104E0042302E0056100E000235E
:1003D000FF2A01D8064601E000F104064FEA840531
:1003E00001D9A5F12005D6F8008007FA05FC28EA16
:1003F0000C0803FA05F548EA0508C6F800804D68C0
:10040000ED0062D5374DAE6946F00106AE61AD69CB
:1004100024F0030605F001050095334D06EB050CAD
:10042000DCF80850A607360F07FA06F825EA080593
:10043000DFF8B880404503D14FF0000817E044E0F2
:10044000DFF8AC80404502D14FF001080FE0DFF843
:10045000A480404502D14FF0020808E0DFF8988000
:10046000404502D14FF0030801E04FF0040808FABC
:1004700006F848EA0508CCF808804D68D9F800600D
:10048000ED034D4601D5164300E096432E604D68BE
:10049000DAF80060AD03554601D5164300E09643F7
:1004A0002E604D68DBF80060ED025D4601D5164315
:1004B00000E096432E604D68DEF80060AD027546A0
:1004C00001D5164300E096432E60641C0D682A4651
:1004D000E5407FF431AFBDE8F88F00000004014033
:1004E000000011100010024000000140000801400F
:1004F000000C0140001001400014014080680840D9
:1005000000D0012070470AB1016170470904FBE780
:10051000014880687047000034000020024881686C
:10052000027811448160704734000020074810B5FC
:10053000016841F010010160032000F075F800200F
:1005400000F006F800F024F8002010BD0020024062
:1005500070B50D4D04464FF47A712878B1FBF0F078
:100560000A490968B1FBF0F000F0ECFA48B9102C28
:1005700007D200222146501E00F036F800206C60A1
:1005800070BD012070BD000034000020400000203C
:100590000C4808B5816941F001018161816901F070
:1005A00001010091C16941F08051C161C06900F051
:1005B000805000900448416821F0E06141F00071F2
:1005C000416008BD0010024000000140002809DB26
:1005D00000F01F02012191404009800000F1E0205D
:1005E000C0F8001170470000F0B40E4B1B680C46B9
:1005F000C3F30223C3F10705042D00D90425191DF7
:10060000072901D2002300E0DB1E012606FA05F1CE
:10061000491E214099409E40761E16403143F0BC51
:1006200000F0EEBE0CED00E0064900F0070208689D
:100630004FF6FF03184040EA0220034A10430860C7
:10064000704700000CED00E00000FA052DE9F047CE
:100650000F46050061D0434E306800F00700B842F5
:1006600009D2306820F0070038433060306800F06D
:100670000700B84251D128683B4C810712D540078A
:1006800003D5606840F4E06060602878000703D517
:10069000606840F4605060606068A96820F0F00015
:1006A000084360602878C00728D06868012810D007
:1006B0002168022810D0890700292EDA616821F00C
:1006C000030101436160FFF723FF804641F288394F
:1006D0000DE021688903EFE78901EDE7FFF718FFD7
:1006E000A0EB0801494502D90320BDE8F087606806
:1006F000696800F00C00B0EB810FEFD1306800F0BA
:100700000700B8420BD9306820F00700384330604A
:10071000306800F00700B84201D00120E5E72878F2
:10072000400705D56068E96820F4E0600843606030
:100730002878000706D56068296920F4605040EAEF
:10074000C100606000F038F86168084AC1F3031125
:10075000515CC8400649086006480068FFF7F8FE8B
:100760000020C2E70020024000100240282A0008B2
:10077000400000203800002004480549006849680E
:10078000044AC1F30221515CC84070474000002078
:1007900000100240382A00080448054900684968EA
:1007A000044AC1F3C221515CC84070474000002098
:1007B00000100240382A000812A185B00FC98DE848
:1007C0000F0014A0144A006804905168134801F007
:1007D0000C03042B10D0082B0ED1C1F38343C903A3
:1007E0001DF803000AD5516804AAC1F34041515CC9
:1007F0000A4A5043B0FBF1F005B07047084948433E
:10080000FAE7000002030405060708090A0B0C0DAD
:100810000E0F1010010200000010024000127A00BA
:1008200000093D002DE9F84F040070D02078C04D3C
:10083000C00749D06868C0F38100012807D0686804
:10084000C0F38100022809D16868C00306D5286872
:10085000800339D560680028E7D035E06068B0F5DE
:10086000803F0BD010B1B0F5A02F11D0286820F434
:1008700080302860286820F4802002E0286840F456
:1008800080302860606890B1FFF742FE06460AE0BB
:10089000286840F480202860F0E700BFFFF738FEAA
:1008A000801B642873D828688003F7D50CE0FFF715
:1008B0002FFE064605E000BFFFF72AFE801B6428D6
:1008C000F0D828688003F7D420789A4E80074FF03C
:1008D00001094FF0000839D5686810F00C0F07D0F7
:1008E0006868C0F38100022809D16868C00306D493
:1008F0002868800714D52069012808D110E02069F4
:10090000B0B1C6F80090FFF703FE074605E00AE124
:10091000FFF7FEFDC01B0228C4D828688007F7D562
:100920002868616920F0F80040EAC10028600DE005
:10093000C6F80080FFF7ECFD074604E0FFF7E8FD8E
:10094000C01B022823D828688007F7D42078000726
:100950002CD57948A169D9B1C0F80090FFF7D8FD2E
:10096000074604E0FFF7D4FDC01B02280FD8686AD1
:100970008007F7D571484FF4FA510068B0FBF1F0E9
:10098000009000BF0098411E0091FAD20EE080E076
:10099000C0F80080FFF7BCFD074604E0FFF7B8FD94
:1009A000C01B022875D8686A8007F7D420784007F2
:1009B00060D5E8690027C00008D4E86940F080509D
:1009C000E861E869012700F0805000905C48016808
:1009D000C90513D40168834641F480710160FFF7B3
:1009E00097FD824606E000BFFFF792FDA0EB0A00EC
:1009F00064284ED8DBF80000C005F5D5E068012872
:100A00000AD008B1052813D0286A20F00100286216
:100A1000286A20F0040002E0286A40F00100286201
:100A2000E06841F2883B98B1FFF772FD82460BE027
:100A3000286A40F004002862EEE700BFFFF768FD77
:100A4000A0EB0A0159455AD8286A8007F6D50CE070
:100A5000FFF75EFD824605E0FFF75AFDA0EB0A01B5
:100A600059454CD8286A8007F6D41FB1E86920F0B0
:100A70008050E861E06988B36968C1F381010229A7
:100A800044D00228C6F8608004D0FFF741FD044638
:100A900038E034E0FFF73CFD074604E0FFF738FD9F
:100AA000C01B02282BD828688001F7D4206AB0F533
:100AB000803F05D16868A16820F400300843686071
:100AC000D4E908010843696821F474110843686097
:100AD000C6F86090FFF71CFD044606E025E000BF65
:100AE000FFF716FD001B022809D828688001F7D5FA
:100AF0001BE000BFFFF70CFD001B022802D90320FA
:100B0000BDE8F88F28688001F4D40EE00128F7D002
:100B10006868226A00F48031914204D1616A00F46D
:100B20007010884201D00120EAE70020E8E70000C9
:100B30000010024000004242800442424000002077
:100B40000070004010B5401EB0F1807F01D301203D
:100B500010BD4FF0E02460610F21601700F050FCE1
:100B60000020A06107202061002010BD7047000018
:100B700070B5026804461068D168536910F00F0F11
:100B800052D003F0010501F490762E435FD0C207E6
:100B900005D0CA0503D5E26B42F00102E2634207C9
:100BA00005D5DA0703D0E26B42F00202E263820766
:100BB00005D5DA0703D0E26B42F00402E2630207D4
:100BC00007D501F020022A4303D0E26B42F008026D
:100BD000E263E26B002A33D0800604D5880602D592
:100BE000204600F0F9FA20684069E16BC0F38010FC
:100BF000090700D428B3204600F0E0FA20684169D4
:100C000049061AD5416921F040014161606BA0B1EC
:100C10002D494163606BFFF715FB002810D0606B16
:100C2000416BBDE870400847830610D58B060ED592
:100C30002046BDE8704000F0CFBA2046FFF796FF8F
:100C400070BD2046FFF792FF0020E06370BD0306F1
:100C50002BD50B0629D594F839002128F6D1A068A8
:100C6000B0F5805F01D12069B0B1206A411C2162DA
:100C7000216800784860E08C401E0004000CE0848D
:100C8000E4D12068C16821F08001C1602068C1689A
:100C900041F04001C16070BD206A0088C0F30800C7
:100CA0005060206A801C2062E5E74006F3D54806C4
:100CB000F1D5D168204621F04001D160202184F88F
:100CC000391000F094F970BDAD11000870B5040042
:100CD00004D094F83900002510B106E0012070BD61
:100CE00084F83850204600F023F8242084F8390096
:100CF0002068C16821F40051C160204600F0B2FABA
:100D00002068016921F4904101612068416921F066
:100D10002A0141612068C16841F40051C160E56366
:100D2000202084F8390084F83A00002070BD0000CB
:100D300070B586B0002400940194029403942E4E62
:100D400003682E49022003222D4DB34230D18B6916
:100D500043F480438B618B6903F4804304938B6974
:100D600043F008038B618969039201F00801049143
:100D70004021CDE9001069462846FFF7CFFA8020D0
:100D8000CDE90004694628460294FFF7C7FA1D48DA
:100D9000416841F0E06141F00401416000221146E8
:100DA0002520FFF721FC2520FFF710FC06B070BDC1
:100DB000154EB342FAD1CB6943F48023CB61CB69A2
:100DC00003F4802304938B6943F008038B618969E2
:100DD000039201F0080104913115CDE90010694634
:100DE0002846FFF79BFAF014CDE90004694628462F
:100DF0000294FFF793FAD9E700380140001002404F
:100E0000000C014000000140004800402DE9F84F6F
:100E1000044690F83A009A4616460D46202851D1CD
:100E2000EDB1E6B194F8380001284BD0012084F8E8
:100E300038000027E763222084F83A00FFF768FBB8
:100E4000A6858146E685A0684FF48058404501D1CB
:100E5000206938B12E46002584F8387027E001203B
:100E6000BDE8F88F0026F7E74B46002220212046F8
:100E7000CDF800A000F052FA08B10320F0E726B147
:100E8000A06840451BD038B108E020684068C0F336
:100E9000080025F8020B07E0206980B1206840684F
:100EA00000F07F0006F8010BE08D401EE085E08D2C
:100EB0000028D9D1202084F83A000020D0E720680B
:100EC0004068EFE70220CBE790F83A30202B22D1A0
:100ED000F9B1F2B190F83830012B1CD081628285D3
:100EE000C2850021C163222280F83A2080F83810A0
:100EF0000168CA6842F48072CA6001684A6942F0B7
:100F000001024A610068C16841F02001C16000200F
:100F100070470120704702207047000000680449B4
:100F2000884204D1012203490348FFF7CDBF70472F
:100F3000003801400A000020500000202DE9F8434D
:100F4000044690F839001F4616460D4620284CD11D
:100F5000C5B1BEB194F83800012846D0012084F80C
:100F600038004FF00008C4F83C80212084F8390094
:100F7000FFF7CEFAA6848146E684A068B0F5805FCC
:100F800003D004E00120BDE8F883206928B12E4693
:100F90005FF0000584F838800EE00026FAE7802133
:100FA000204600F0BBF9A0B9AEB116F8010B2168DC
:100FB0004860E08C401EE084E08C4B464FF000021D
:100FC00000970028EBD14FF04001204600F0A6F931
:100FD00030B10320D7E735F8020BC0F30800E6E78D
:100FE000202084F839000020CDE70220CBE77047AD
:100FF000FEE700002DE9F04385B000243F4800944F
:10100000019402940394816941F010018161816926
:1010100001F010010491816941F020018161816931
:1010200001F020010491816941F00401816181692D
:1010300001F004010491816941F008018161806936
:10104000DFF8BC8000F008000490002240F63C71FC
:101050004046FFF758FADFF8AC904FF2080700223D
:1010600039464846FFF74FFA4FF48040CDE9000477
:10107000254E694630460294FFF750F94FF4004080
:1010800001258DE8310069463046FFF747F9032610
:10109000CDE90064694640460294FFF73FF93C20E1
:1010A000CDE90005CDE9024669464046FFF736F92D
:1010B000022600970396CDE9015469464846FFF79A
:1010C0002DF93811CDE90005CDE9024669464046C3
:1010D000FFF724F9680200900C48CDE90105694644
:1010E0004846FFF71BF9002201211720FFF77CFA81
:1010F0001720FFF76BFA05B0BDE8F083001002403F
:1011000000080140000C01400010014000001110D7
:10111000FEE7FEE77047704770B500F043F9074DF2
:10112000074E00242846315DFFF780F8641C2D1D12
:10113000062CF7DB03498020086170BD00FC010824
:101140002600002000200240FFF7E8B930B58FB03C
:1011500028216846FEF7EFFF14210AA8FEF7EBFFEF
:1011600001210804CDE90010002402940225049115
:10117000CDE907504FF4E01009906846FFF752FBA5
:1011800008B172B6FEE70F20CDE90A054FF4806082
:10119000CDE90C4002210AA80E94FFF757FA002867
:1011A00001D072B6FEE70FB030BD704710B5406A8F
:1011B0000021C185C184FFF7D9FC10BD0168CA6850
:1011C00022F49072CA6001684A6922F001024A6101
:1011D000202180F83A10704710B590F83A10222973
:1011E00001D0022010BD82684FF480539A4201D191
:1011F000016921B1816A9A421BD04AB10AE00268B2
:10120000816A5268C2F308020A80816A891C08E078
:10121000026972B10268526802F07F020A70816A44
:10122000491C8162C18D491E0904090CC18503D086
:1012300016E002685268F1E70168CA6822F02002ED
:10124000CA600168CA6822F48072CA6001684A698B
:1012500022F001024A61202180F83A10FFF75EFE79
:10126000002010BD70B5044600680169E26821F4F1
:101270004051114301612169A06808436169084335
:101280002168CA6841F20C639A430243CA6020682D
:101290004169A26921F44071114341611E492068EE
:1012A000884202D1FFF778FA01E0FFF765FA00EB18
:1012B000C00101EB0012606864218000B2FBF0F312
:1012C000B3FBF1F36FF018067343B2FBF0F5B2FB1A
:1012D000F0F605EB8305322303EB0515B5FBF1F5BD
:1012E000B6FBF1F605F0F00505EB0615B2FBF0F6DE
:1012F000B2FBF0F0B0FBF1F06FF01802504306EBD8
:10130000800003EB0010B0FBF1F0216800F00F004B
:101310002844886070BD0000003801402DE9F0418C
:10132000984617460E460446069D1DE0681C1BD0D5
:101330002DB1FFF7EDF8A0EB0800A84214D9206802
:10134000C16821F4D071C1602068416921F00101B8
:101350004161202084F8390084F83A00002084F8A4
:1013600038000320BDE8F0812068006836EA0000FC
:1013700004D00020B842D9D00020F3E70120F9E7DB
:101380000148FFF7F5BB00005000002001B54FF405
:10139000FA73012269460248FFF7D0FD08BD00003C
:1013A00090000020034802494160034941607047B2
:1013B0002301674500200240AB89EFCDFEE7000026
:1013C000044A136943F0010313610180D068C00728
:1013D000FCD17047002002400FB4084B10B504A99F
:1013E00002AA039800F02CF8044602A9002000F09D
:1013F00003F9204610BC5DF814FB0000F915000845
:101400000907090E002804DB00F1E02080F8001431
:10141000704700F00F0000F1E02080F8141D7047C5
:1014200002E008C8121F08C1002AFAD170477047AD
:10143000002001E001C1121F002AFBD1704700000B
:101440002DE9FF4F8BB09A460F460546002606E071
:1014500025280BD052460D9990476D1C761C287894
:101460000028F5D10FB03046BDE8F08F0024A0462B
:101470000122604900E0044315F8013F203B02FAD5
:1014800003F00842F7D128782E2817D115F8010F5C
:1014900044F004042A280ED06FF02F022878A0F11F
:1014A000300109290AD808EB880102EB410100EB61
:1014B00001086D1CF2E757F8048B6D1C2878692829
:1014C0003ED006DC0028CDD063280BD0642804D1A0
:1014D00036E0732810D075284BD052460D999047AE
:1014E000761C85E017F8040B8DF8000000208DF8BD
:1014F0000100E946012003E057F8049B4FF0FF305C
:1015000061074FF0000401D40AE0641C44450DDA81
:101510008442FADB19F804100029F6D106E0641CB5
:101520008442FCDB19F804100029F8D1264404E0B9
:1015300019F8010B52460D999047641EF8D257E0F6
:1015400001CF4FF00A0B002802DA40422D2102E0C1
:10155000210504D52B218DF82410012103E0E1079A
:1015600005D02021F7E70DF1200908910CE00021BA
:10157000F9E701CF4FF00A0BF9E75946FEF7E6FD10
:1015800001F1300209F8012D0028F6D1ADEB090078
:1015900000F1200B600701D44FF00108D84502DDAF
:1015A000A8EB0B0000E000208046002406E009A81C
:1015B0005246005D0D999047641C761C0898844241
:1015C000F5DB04E0302052460D999047761CB8F1C7
:1015D0000001A8F10108F5DC05E019F8010B5246FD
:1015E0000D999047761CBBF10001ABF1010BF4DCC7
:1015F0006D1C34E7092801000A68531C0B60107049
:10160000704700002DE9F0414FF47A7640F2DC5744
:10161000FF25584C00F026F900F05BFA002108463F
:1016200000F09CFA54A000F0BFFA0021012000F065
:1016300095FA57A000F0B8FA3046FEF74FFE0021A9
:10164000012000F08BFA57A000F0AEFAC4F80C505D
:1016500000F008F900F006F900F004F9E060002855
:10166000F6D100210120E56000F078FA54A000F0E6
:101670009BFA6420FEF732FE0021012000F06EFA92
:1016800054A000F091FAE560012000F0F3F9E06069
:101690000028F9D10021012000F060FA53A000F0E9
:1016A00083FA6420FEF71AFE0021012000F056FAAA
:1016B0003CA000F079FAE56000F0D4F800F0D2F830
:1016C00000F0D0F8E0600028F6D10021012000F001
:1016D00045FA3BA000F068FA6420FEF7FFFD002108
:1016E0000120E56000F03AFA3AA000F05DFAE06807
:1016F00003E0022000F0BEF9E0600028F9D1E560C7
:1017000000F016FEE060082828D0012826D0002826
:10171000F6D1E56001F09EF8E0606420FEF7DEFDA2
:10172000E0680028F6D1E560E07801F047F9E06074
:101730006420FEF7D3FDE0680028F5D100210120E8
:1017400000F00CFA2FA000F02FFA052000F06EF840
:101750003846FEF7C3FDE560BDE8F08100210120B9
:1017600000F0FCF92CA000F01FFA3846FEF7B6FD99
:1017700050E700000400002020205468656D2056CA
:10178000616E20546179212120202020200000005A
:101790004461742056616E205461792121202020FB
:1017A0002020000052656164696E672066696E677B
:1017B00065722E2E2E2121202020202000000000E6
:1017C00052656D6F76652046696E676572212120CE
:1017D0002020000050726F63657373696E67204646
:1017E000696E6765722121202020000064617420E9
:1017F0006C61692076616E2074617920212120203E
:10180000200000002020536176652046696E6765E0
:1018100072212020202000004C4F492C204C616D6B
:10182000204C6169212120202000000070B5044671
:101830004FF400760A4D0FE0012231462846FEF7AC
:1018400062FEC820FEF74AFD002231462846FEF718
:101850005AFE9620FEF742FD641EE4B2ECD270BD43
:101860000008014010B5EF20FFF790FD0120FFF7C1
:101870008DFDFF20FFF78AFDFF20FFF787FDFF208A
:10188000FFF784FDFF20FFF781FD0120FFF77EFDBC
:101890000020FFF77BFD0320FFF778FD0120FFF715
:1018A00075FD0020FFF772FD0520FFF76FFDBDE815
:1018B00010400C2000F090BF70B505461530C4B242
:1018C000EF20FFF763FD0120FFF760FDFF20FFF72A
:1018D0005DFDFF20FFF75AFDFF20FFF757FDFF20BA
:1018E000FFF754FD0120FFF751FD0020FFF74EFDEB
:1018F0000720FFF74BFD0C20FFF748FD0020FFF706
:1019000045FD2846FFF742FD0020FFF73FFD01207F
:10191000FFF73CFD0020FFF739FD2046FFF736FDBD
:10192000BDE870400C2000F057BF000010B500F07B
:10193000D0F80120FFF77AFF18A000F035F9022156
:10194000012000F00BF91AA000F02EF91B4C012227
:1019500008212046FEF7D7FD41F28830FEF7BEFC95
:1019600000F0B7F81E20FEF7B9FC15A000F01CF936
:101970000221012000F0F2F816A000F015F9642011
:10198000FEF7ACFC002208212046FEF7BCFD1549FD
:1019900000208870BDE8104000F050B82D2D2A2A94
:1019A00020435541204D4F202A2A2D2D00000000B4
:1019B00058494E204D4F492056414F00000C0140E0
:1019C0002D2D2D2D2D2A2A2A2A2A2A2D2D2D2D2D59
:1019D000000000002043554120444120444F4E4721
:1019E000000000000400002010B5EF20FFF7CEFC3F
:1019F0000120FFF7CBFCFF20FFF7C8FCFF20FFF71B
:101A0000C5FCFF20FFF7C2FCFF20FFF7BFFC012051
:101A1000FFF7BCFC0020FFF7B9FC0320FFF7B6FC82
:101A20000D20FFF7B3FC0020FFF7B0FC1120FFF7FB
:101A3000ADFCBDE810400C2000F0CEBE10B500F0AB
:101A400051F800F046F806A000F0AEF80849002072
:101A50000870BDE810404FF47A70FEF73FBC0000FC
:101A600020202020205072657373202A202020001F
:101A70000400002070B50546C41DEF20FFF786FC6A
:101A80000120FFF783FCFF20FFF780FCFF20FFF71A
:101A90007DFCFF20FFF77AFCFF20FFF777FC012099
:101AA000FFF774FC0020FFF771FC0420FFF76EFCC9
:101AB0000220FFF76BFC2846FFF768FC0020FFF7C9
:101AC00065FCE0B2FFF762FCBDE870400C2000F05E
:101AD00083BE10B5012000F04DF8BDE81040022093
:101AE000FEF7FCBB10B53220FEF7F8FB302000F00B
:101AF00041F80520FEF7F2FB302000F03BF8012012
:101B0000FEF7ECFB302000F035F80A20FEF7E6FB8C
:101B1000202000F02FF80A20FEF7E0FB282000F03C
:101B200029F80120FEF7DAFB082000F023F8012055
:101B3000FEF7D4FB012000F01DF80120FEF7CEFBDC
:101B40000120FEF7CBFB062000F014F80120FEF781
:101B5000C5FBBDE810400C2000F00CB810B1012806
:101B600005D102E041F0800101E041F0C001C8B2BE
:101B7000AFF3008010B504460009002100F0E2FE3A
:101B800004F00F00BDE81040002100F0DBBE10B5EE
:101B900004460009012100F0D5FE04F00F00BDE865
:101BA0001040012100F0CEBE10B5044602E0641CD6
:101BB000FFF7EDFF20780028F9D110BDFEF7B6FC45
:101BC000FFF7C4FAFFF716FAFE48FD490026016048
:101BD0004FF46141C0E901160C24C660C0E90464F9
:101BE0008661C661FFF772F808B172B6FEE7F54884
:101BF000F549403801604FF41651C0E90116C6603E
:101C0000C0E904648661C661FFF760F808B172B686
:101C1000FEE7FEF7D9FAFFF765FFECA0FFF7C4FF78
:101C200001210846FFF79AFFECA0FFF7BDFF4FF434
:101C30007A773846FEF752FBFFF74BFFEBA0FFF732
:101C4000B3FF00F031FEDF480122ED494038FFF7D5
:101C50003BF9DFF8AC9309F10A0909F10608A8F18C
:101C6000160404F1220500BF00F066FC2A2813D0F8
:101C700041287DD042287CD044287BD0E0480078A1
:101C8000612878D07A2877D000F0F2FBFFF721FFA7
:101C9000D6A0FFF789FFE7E7DFF868B34FF4007AD3
:101CA000012251465846FEF72EFC6420FEF716FB33
:101CB000002251465846FEF726FCFFF70AFF1E2079
:101CC000FEF70CFBD0A0FFF76FFF4FF4FA70FEF7A2
:101CD00005FB667000F086FB6078401CC0B2607047
:101CE0000628F7D3267029782A290ED16878232868
:101CF0000BD1A8782A2808D1E878232805D128799B
:101D00002A2802D1687923281DD099F80020484656
:101D1000914268D16A7843789A4264D1AA788378EC
:101D20009A4260D1EA78C3789A425CD12A790379E1
:101D30009A4258D16A7999F80500824253D100BF7E
:101D4000FFF7F4FD90E7FFF7C4FEB2A0FFF72CFF0A
:101D500084F8016000F016FB6078401CC0B260702F
:101D60000628F7D326702978484699F8002004E021
:101D700017E112E2F1E068E279E291424DD169782F
:101D80004278914249D1A9788278914245D1E97847
:101D9000C278914241D12979027991423DD1697944
:101DA00099F80500814238D1FFF793FE9CA0FFF718
:101DB000FBFE667000F0E6FA6078401CC0B260700E
:101DC0000628F7D32670FFF7A7F93220FEF786FA28
:101DD000FFF77FFE95A0FFF7E7FE0220FFF726FD45
:101DE00000F062FD2EE298F800204046914214D1A6
:101DF0006A7841788A4210D1A978827891420CD1D0
:101E0000E978C278914208D12A7901798A4204D1CD
:101E1000697998F80500814292D0A078401CA070A2
:101E2000FFF757FE1E20FEF759FA00210846FFF77C
:101E300095FE83A0FFF7B8FE00210120FFF78EFE7C
:101E400084A0FFF7B1FE0520FFF7F0FCA07803287F
:101E500017D0042849D00528FFF41DAFFFF739FE3D
:101E600000210846FFF77AFE7EA0FFF79DFE0021C5
:101E70000120FFF773FE80A0FFF796FE00F0F8FA4E
:101E8000ECE7FFF726FE00210846FFF767FE7FA07C
:101E9000FFF78AFE00210120FFF760FE80A0FFF718
:101EA00083FE0A206071FEF733FBA060FEF730FB73
:101EB0000146A068081AB84213D16079401E6071CB
:101EC000FEF726FBA0603F48627978A14C38FFF707
:101ED00083FA0E210120FFF741FE3A484C38FFF704
:101EE00063FE60790028E1D1ACE1FFF7F2FD1E202E
:101EF000FEF7F4F900210846FFF730FE63A0FFF774
:101F000053FE00210120FFF729FE65A0FFF74CFEDC
:101F100014206071FEF7FCFAC4F80800FEF7F8FA26
:101F20000146A068081AB84213D16079401E60715A
:101F3000FEF7EEFAA060234862795CA14C38FFF707
:101F40004BFA0E210120FFF709FE1E484C38FFF71F
:101F50002BFE60790028E1D174E1FFF7BAFD54A0AF
:101F6000FFF722FE84F8016000F00CFA6078401C54
:101F7000C0B260700628F7D32670287844280ED1A6
:101F8000687843280BD1A878442808D1E8784328FA
:101F900005D12879442802D1687943280ED0FFF76B
:101FA0004DFDFFF796FD19A0FFF7FEFD84F80160D7
:101FB00000F0E8F96078401CC0B281E0C1E00000A8
:101FC000004800409000002000380140204B686F1E
:101FD000612056616E205461790000004441544EE6
:101FE0002048615549203230323400002020202022
:101FF000205072657373202A2020202020000000CA
:102000000A000020000801404D6F69204E68617091
:10201000204D4B004E686170204D4B2043750000F1
:102020004E686170204D4B204D6F6900446F6920F0
:102030004D4B205468616E6820436F6E670000004E
:102040002D2D2D2D2D2A2A2A2A2A2A2D2D2D2D2DD2
:10205000000000004D4B204B484F4E472044554E4A
:10206000470000002D2D4B686F61204D6174204B9F
:102070006861752D2D2000004D6F69204E686170DC
:102080002056616E20546179000000002D2D5341CF
:102090004920515541204E484945552D2D200000DD
:1020A00058494E20544855204C4149002564200091
:1020B00020202020416476616E636564000000008A
:1020C00060700628FFF474AF2670297898F8002015
:1020D000404691427FF4A1AE697842789142F9D1AD
:1020E000A97882789142F5D1E978C2789142F1D10C
:1020F000297902799142EDD1697998F805008142F8
:10210000E8D1FFF7E6FC67A0FFF74EFD00210120B4
:10211000FFF724FD67A0FFF747FD052020706670DC
:1021200000F030F96078401C10F0FF006070F7D0CC
:102130006879E0704FF4FA70FEF7D0F8FFF762FAB2
:1021400080E0FFF7C6FC00210846FFF707FD5BA013
:10215000FFF72AFDFFF726F95C4D5D4E0024284667
:10216000315DFEF763F8641C2D1D062CF7DB594921
:10217000802008614FF4FA60FEF7B0F8FFF734FCF6
:10218000BFF34F8F5448016801F4E06253490A439A
:102190000260BFF34F8F00BFFDE7FFF79AFCAFF27D
:1021A0009410FFF701FD667000F0ECF86078401CB9
:1021B000C0B260700628F7D32670297898F80020FE
:1021C0004046914286D169784278914287D1A97878
:1021D0008278914287D1E978C278914287D1297972
:1021E0000279914287D1697998F80500814287D1B7
:1021F000FFF76FFC3AA0FFF7D7FC00210120FFF7A3
:10220000ADFC2CA0FFF7D0FC0520207084F8016005
:1022100000F0B8F86078401C10F0FF006070F7D054
:102220006879E0700A20FEF759F8E078FFF744FB80
:1022300000210120FFF792FC2CA0FFF7B5FCC8207D
:10224000FEF74CF8FFF7FAFB0EE5FFF742FC2BA078
:10225000FFF7AAFC02210120FFF780FC2CA0FFF76A
:10226000A3FC012208212D48FEF74DF9FCE4FFF7FD
:1022700030FC1E20FEF732F8AFF23C20FFF794FC52
:1022800002210120FFF76AFC25A0FFF78DFC4FF427
:10229000FA60FEF723F8002208212048FEF733F900
:1022A000D0E700005468656D2076616E2074617916
:1022B000000000004944203D2000000052455345E5
:1022C000542050415353574F5244200000FC010802
:1022D00020000020002002400CED00E00400FA0580
:1022E000586F612076616E2074617900202044610E
:1022F00020586F6120202020202000002D2D2A2A28
:1023000020435541204D4F202A2A2D2D000000004A
:1023100058494E204D4F492056414F00000C014076
:102320002043554120444120444F4E4700000000C7
:1023300010B5EF20FFF72AF80120FFF727F8FF205C
:10234000FFF724F8FF20FFF721F8FF20FFF71EF822
:10235000FF20FFF71BF80120FFF718F80020FFF718
:1023600015F80320FFF712F80320FFF70FF80020FD
:10237000FFF70CF80720FFF709F8BDE810400E2022
:1023800000F03EBA2DE9F041144C002084F804001E
:1023900000F0D2F820710028FAD0104D21782235B3
:1023A000012268540E4F560231463846FEF7ABF80C
:1023B00021780120FFF7D2FB2078285CFFF7E7FBAC
:1023C000DC20FDF78BFF002231463846FEF79BF8F4
:1023D0002078401C2070BDE8F0810000040000203F
:1023E000000801402DE9F0411C4C002684F80460EF
:1023F00000F0A2F820710028FAD0184D2178C0B260
:102400002235432868541ED00122154F560231460A
:102410003846FEF778F821780120FFF79FFB2078F7
:10242000285C232800D02A20FFF7B1FB3220FDF7DB
:1024300055FF002231463846FEF765F82078401CEB
:102440002070BDE8F0812670FF206070FFF741FB2F
:10245000BDE8F04103A0FFF7A7BB00000400002087
:10246000000801404D6F69204E686170204D4B009F
:1024700070B5244CFF25E560FEF74AF84FF4C866B6
:10248000A0600CE0FFF7EEF9E060FEF741F8A1680C
:10249000401AB04203D3FEF73BF8A06070BDE0687D
:1024A0000028EFD10120E560FFF7E4FAE56000F0D5
:1024B0000FFAE06090B900210120E560FFF74EFBC4
:1024C00011A0FFF771FB124812A102781448FEF721
:1024D00083FF1348FFF768FBFFF728FAE068092835
:1024E000DCD100210120E560FFF738FB0DA0FFF7EC
:1024F0005BFB0520FFF79AF9BDE870404FF47A7056
:10250000FDF7ECBE040000204D6F204375612100F3
:102510000000002020236964203D20256320200046
:10252000440000202056616E205461792053616977
:1025300021212020202020002DE9F041A44C002260
:1025400020212046FDF7DFFF012210212046FDF764
:10255000DAFF012208212046FDF7D5FF01220421E0
:102560002046FDF7D0FF02212046FDF7C7FF0028D7
:102570007ED001212046FDF7C1FF002879D0954D7E
:102580004FF4004631462846FDF7B8FF002871D0C9
:10259000771039462846FDF7B1FF00286BD001229D
:1025A00020212046FDF7AFFF002210212046FDF735
:1025B000AAFF012208212046FDF7A5FF01220421E0
:1025C0002046FDF7A0FF02212046FDF797FF0028D7
:1025D00071D001212046FDF791FF00286CD03146D3
:1025E0002846FDF78BFF002867D039462846FDF7BF
:1025F00085FF002872D0012220212046FDF783FFAD
:10260000012210212046FDF77EFF002208212046EE
:10261000FDF779FF012204212046FDF774FF022116
:102620002046FDF76BFF002871D001212046FDF701
:1026300065FF00286CD031462846FDF75FFF002873
:1026400067D039462846FDF759FF002872D001228D
:1026500020212046FDF757FF012210212046FDF7DB
:1026600052FF012208212046FDF74DFF002203E022
:1026700024E02BE033E03AE004212046FDF743FF5D
:1026800002212046FDF73AFF00287FD00121204695
:10269000FDF734FF00286FD031462846FDF72EFFA6
:1026A00000286AD039462846FDF728FF002875D053
:1026B0000020BDE8F08122E02CE033E0022120463A
:1026C000FDF71CFF0028F9D03120F2E70121204658
:1026D000FDF714FF0028F9D03220EAE72BE031465D
:1026E0002846FDF70BFF0028F9D03320E1E73946F3
:1026F0002846FDF703FF0028F9D04120D9E7022141
:102700002046FDF7FBFE0028F9D03420D1E71AE07F
:1027100021E028E001212046FDF7F0FE0028F9D055
:102720003520C6E731462846FDF7E8FE0028F9D0F7
:102730003620BEE722E039462846FDF7DFFE0028B6
:10274000F9D04220B5E702212046FDF7D7FE002848
:10275000F9D03720ADE701212046FDF7CFFE002854
:10276000F9D03820A5E731462846FDF7C7FE0028F6
:10277000F9D039209DE709E011E018E039462846F4
:10278000FDF7BCFE0028F9D0432092E70221204645
:10279000FDF7B4FE0028F9D02A208AE70FE00121D6
:1027A0002046FDF7ABFE0028F9D0302081E7314606
:1027B0002846FDF7A3FE0028F9D0232079E7394603
:1027C0002846FDF79BFE0028F9D0442071E7000061
:1027D00000080140001001407FB504464FF47A75AF
:1027E0002B46224669460548FEF710FB0028F7D025
:1027F0000DEB040010F8030C04B070BD9000002035
:102800001FB5044602464FF47A7369460448FEF742
:10281000FDFA0DEB040010F8050C04B010BD00002B
:102820009000002010B586B004460246C8236946D1
:102830000648FEF7EBFA0DEB0400054A10F8070C0A
:102840009DF80B10117006B010BD00009000002024
:102850000000002010B5EF20FEF798FD0120FEF7E4
:1028600095FDFF20FEF792FDFF20FEF78FFDFF2074
:10287000FEF78CFDFF20FEF789FD0120FEF786FDA7
:102880000020FEF783FD0320FEF780FD0520FEF704
:102890007DFD0020FEF77AFD0920FEF777FDBDE8FB
:1028A00010400C20FFF798BF0648074B002100BFDF
:1028B00010F8042B5A54491C0629F9DB03498020DF
:1028C0000861704700FC01082C0000200020024035
:1028D00010B5EF20FEF75AFD0120FEF757FDFF204F
:1028E000FEF754FDFF20FEF751FDFF20FEF74EFDE1
:1028F000FF20FEF74BFD0120FEF748FD0020FEF70C
:1029000045FD0820FEF742FD0420FEF73FFD0120B3
:10291000FEF73CFD0020FEF739FD0020FEF736FDF6
:102920000020FEF733FDFF20FEF730FD0120FEF70B
:102930002DFD0D20FEF72AFDBDE810401020FFF709
:1029400071BF000070B51B4D0446CAB24FF4006160
:102950002846FDF7D8FD184EC4F3C002691430466E
:10296000FDF7D1FDC4F38002A9143046FDF7CBFD7D
:10297000C4F340024FF480413046FDF7C4FD04F03B
:1029800001024FF400413046FDF7BDFD0122140263
:1029900021462846FDF7B7FD1420FDF701FC002273
:1029A00021462846FDF7AFFDBDE870401420FDF735
:1029B000F7BB000000080140000C014070B505465F
:1029C0000E30C4B2EF20FEF7E1FC0120FEF7DEFC82
:1029D000FF20FEF7DBFCFF20FEF7D8FCFF20FEF710
:1029E000D5FCFF20FEF7D2FC0120FEF7CFFC002033
:1029F000FEF7CCFC0620FEF7C9FC0620FEF7C6FC5D
:102A00000120FEF7C3FC0020FEF7C0FC2846FEF7BD
:102A1000BDFC0020FEF7BAFC2046FEF7B7FCBDE87F
:102A200070400C20FFF7D8BE00000000000000003E
:102A30000102030406070809000000000102030464
:102A4000602A000800000020440000002014000854
:102A5000A42A0008440000208C0400003014000860
:102A60000000000000000000000000000000000066
:102A700000000000313233343536313131313131FB
:102A80003132333435360000000000000000000011
:102A90000000000001000000100000000000000025
:042AA0000024F4001A
:04000005080000ED02
:00000001FF
